{
	"data": {
		"bytecode": {
			"linkReferences": {},
			"object": "6080604052335f5f6101000a81548173ffffffffffffffffffffffffffffffffffffffff021916908373ffffffffffffffffffffffffffffffffffffffff160217905550610baf806100505f395ff3fe608060405260043610610042575f3560e01c80632e1a7d4d1461009b57806353a04b05146100c35780638da5cb5b146100df578063b60d42881461010957610097565b36610097573373ffffffffffffffffffffffffffffffffffffffff167f5af8184bef8e4b45eb9f6ed7734d04da38ced226495548f46e0c8ff8d7d9a5243460405161008d919061054d565b60405180910390a2005b5f5ffd5b3480156100a6575f5ffd5b506100c160048036038101906100bc9190610594565b610113565b005b6100dd60048036038101906100d891906105f5565b61024b565b005b3480156100ea575f5ffd5b506100f361047f565b604051610100919061065f565b60405180910390f35b6101116104a3565b005b5f5f9054906101000a900473ffffffffffffffffffffffffffffffffffffffff1673ffffffffffffffffffffffffffffffffffffffff163373ffffffffffffffffffffffffffffffffffffffff16146101a1576040517f08c379a0000000000000000000000000000000000000000000000000000000008152600401610198906106d2565b60405180910390fd5b478111156101e4576040517f08c379a00000000000000000000000000000000000000000000000000000000081526004016101db9061073a565b60405180910390fd5b5f5f9054906101000a900473ffffffffffffffffffffffffffffffffffffffff1673ffffffffffffffffffffffffffffffffffffffff166108fc8290811502906040515f60405180830381858888f19350505050158015610247573d5f5f3e3d5ffd5b5050565b5f341161028d576040517f08c379a0000000000000000000000000000000000000000000000000000000008152600401610284906107a2565b60405180910390fd5b60023461029a91906107ed565b4710156102dc576040517f08c379a00000000000000000000000000000000000000000000000000000000081526004016102d390610878565b60405180910390fd5b60038160ff1610610322576040517f08c379a0000000000000000000000000000000000000000000000000000000008152600401610319906108e0565b60405180910390fd5b5f600342433360405160200161033a93929190610963565b604051602081830303815290604052805190602001205f1c61035c91906109cc565b90505f8160ff168360ff161490508015610426575f3373ffffffffffffffffffffffffffffffffffffffff1660023461039591906107ed565b6040516103a190610a29565b5f6040518083038185875af1925050503d805f81146103db576040519150601f19603f3d011682016040523d82523d5f602084013e6103e0565b606091505b5050905080610424576040517f08c379a000000000000000000000000000000000000000000000000000000000815260040161041b90610a87565b60405180910390fd5b505b3373ffffffffffffffffffffffffffffffffffffffff167f7473f770bc80b579d2f3be930416c6005d23c61ec7868a78414a9cba54e37751348386866040516104729493929190610ace565b60405180910390a2505050565b5f5f9054906101000a900473ffffffffffffffffffffffffffffffffffffffff1681565b5f34116104e5576040517f08c379a00000000000000000000000000000000000000000000000000000000081526004016104dc90610b5b565b60405180910390fd5b3373ffffffffffffffffffffffffffffffffffffffff167f5af8184bef8e4b45eb9f6ed7734d04da38ced226495548f46e0c8ff8d7d9a5243460405161052b919061054d565b60405180910390a2565b5f819050919050565b61054781610535565b82525050565b5f6020820190506105605f83018461053e565b92915050565b5f5ffd5b61057381610535565b811461057d575f5ffd5b50565b5f8135905061058e8161056a565b92915050565b5f602082840312156105a9576105a8610566565b5b5f6105b684828501610580565b91505092915050565b5f60ff82169050919050565b6105d4816105bf565b81146105de575f5ffd5b50565b5f813590506105ef816105cb565b92915050565b5f6020828403121561060a57610609610566565b5b5f610617848285016105e1565b91505092915050565b5f73ffffffffffffffffffffffffffffffffffffffff82169050919050565b5f61064982610620565b9050919050565b6106598161063f565b82525050565b5f6020820190506106725f830184610650565b92915050565b5f82825260208201905092915050565b7f6e6f74206f776e657200000000000000000000000000000000000000000000005f82015250565b5f6106bc600983610678565b91506106c782610688565b602082019050919050565b5f6020820190508181035f8301526106e9816106b0565b9050919050565b7f746f6f206d7563680000000000000000000000000000000000000000000000005f82015250565b5f610724600883610678565b915061072f826106f0565b602082019050919050565b5f6020820190508181035f83015261075181610718565b9050919050565b7f4d7573742073656e64204d4f4e20746f20706c617900000000000000000000005f82015250565b5f61078c601583610678565b915061079782610758565b602082019050919050565b5f6020820190508181035f8301526107b981610780565b9050919050565b7f4e487b71000000000000000000000000000000000000000000000000000000005f52601160045260245ffd5b5f6107f782610535565b915061080283610535565b925082820261081081610535565b91508282048414831517610827576108266107c0565b5b5092915050565b7f62616e6b726f6c6c20746f6f206c6f77000000000000000000000000000000005f82015250565b5f610862601083610678565b915061086d8261082e565b602082019050919050565b5f6020820190508181035f83015261088f81610856565b9050919050565b7f696e76616c6964206775657373000000000000000000000000000000000000005f82015250565b5f6108ca600d83610678565b91506108d582610896565b602082019050919050565b5f6020820190508181035f8301526108f7816108be565b9050919050565b5f819050919050565b61091861091382610535565b6108fe565b82525050565b5f8160601b9050919050565b5f6109348261091e565b9050919050565b5f6109458261092a565b9050919050565b61095d6109588261063f565b61093b565b82525050565b5f61096e8286610907565b60208201915061097e8285610907565b60208201915061098e828461094c565b601482019150819050949350505050565b7f4e487b71000000000000000000000000000000000000000000000000000000005f52601260045260245ffd5b5f6109d682610535565b91506109e183610535565b9250826109f1576109f061099f565b5b828206905092915050565b5f81905092915050565b50565b5f610a145f836109fc565b9150610a1f82610a06565b5f82019050919050565b5f610a3382610a09565b9150819050919050565b7f7061796f7574206661696c6564000000000000000000000000000000000000005f82015250565b5f610a71600d83610678565b9150610a7c82610a3d565b602082019050919050565b5f6020820190508181035f830152610a9e81610a65565b9050919050565b5f8115159050919050565b610ab981610aa5565b82525050565b610ac8816105bf565b82525050565b5f608082019050610ae15f83018761053e565b610aee6020830186610ab0565b610afb6040830185610abf565b610b086060830184610abf565b95945050505050565b7f4d7573742073656e64204d4f4e000000000000000000000000000000000000005f82015250565b5f610b45600d83610678565b9150610b5082610b11565b602082019050919050565b5f6020820190508181035f830152610b7281610b39565b905091905056fea26469706673582212204b9ac74e632fef7f4f60234a01a3c8e1bbf712fbe170a19f9728c744ac14ebf464736f6c634300081e0033",
			"opcodes": "PUSH1 0x80 PUSH1 0x40 MSTORE CALLER PUSH0 PUSH0 PUSH2 0x100 EXP DUP2 SLOAD DUP2 PUSH20 0xFFFFFFFFFFFFFFFFFFFFFFFFFFFFFFFFFFFFFFFF MUL NOT AND SWAP1 DUP4 PUSH20 0xFFFFFFFFFFFFFFFFFFFFFFFFFFFFFFFFFFFFFFFF AND MUL OR SWAP1 SSTORE POP PUSH2 0xBAF DUP1 PUSH2 0x50 PUSH0 CODECOPY PUSH0 RETURN INVALID PUSH1 0x80 PUSH1 0x40 MSTORE PUSH1 0x4 CALLDATASIZE LT PUSH2 0x42 JUMPI PUSH0 CALLDATALOAD PUSH1 0xE0 SHR DUP1 PUSH4 0x2E1A7D4D EQ PUSH2 0x9B JUMPI DUP1 PUSH4 0x53A04B05 EQ PUSH2 0xC3 JUMPI DUP1 PUSH4 0x8DA5CB5B EQ PUSH2 0xDF JUMPI DUP1 PUSH4 0xB60D4288 EQ PUSH2 0x109 JUMPI PUSH2 0x97 JUMP JUMPDEST CALLDATASIZE PUSH2 0x97 JUMPI CALLER PUSH20 0xFFFFFFFFFFFFFFFFFFFFFFFFFFFFFFFFFFFFFFFF AND PUSH32 0x5AF8184BEF8E4B45EB9F6ED7734D04DA38CED226495548F46E0C8FF8D7D9A524 CALLVALUE PUSH1 0x40 MLOAD PUSH2 0x8D SWAP2 SWAP1 PUSH2 0x54D JUMP JUMPDEST PUSH1 0x40 MLOAD DUP1 SWAP2 SUB SWAP1 LOG2 STOP JUMPDEST PUSH0 PUSH0 REVERT JUMPDEST CALLVALUE DUP1 ISZERO PUSH2 0xA6 JUMPI PUSH0 PUSH0 REVERT JUMPDEST POP PUSH2 0xC1 PUSH1 0x4 DUP1 CALLDATASIZE SUB DUP2 ADD SWAP1 PUSH2 0xBC SWAP2 SWAP1 PUSH2 0x594 JUMP JUMPDEST PUSH2 0x113 JUMP JUMPDEST STOP JUMPDEST PUSH2 0xDD PUSH1 0x4 DUP1 CALLDATASIZE SUB DUP2 ADD SWAP1 PUSH2 0xD8 SWAP2 SWAP1 PUSH2 0x5F5 JUMP JUMPDEST PUSH2 0x24B JUMP JUMPDEST STOP JUMPDEST CALLVALUE DUP1 ISZERO PUSH2 0xEA JUMPI PUSH0 PUSH0 REVERT JUMPDEST POP PUSH2 0xF3 PUSH2 0x47F JUMP JUMPDEST PUSH1 0x40 MLOAD PUSH2 0x100 SWAP2 SWAP1 PUSH2 0x65F JUMP JUMPDEST PUSH1 0x40 MLOAD DUP1 SWAP2 SUB SWAP1 RETURN JUMPDEST PUSH2 0x111 PUSH2 0x4A3 JUMP JUMPDEST STOP JUMPDEST PUSH0 PUSH0 SWAP1 SLOAD SWAP1 PUSH2 0x100 EXP SWAP1 DIV PUSH20 0xFFFFFFFFFFFFFFFFFFFFFFFFFFFFFFFFFFFFFFFF AND PUSH20 0xFFFFFFFFFFFFFFFFFFFFFFFFFFFFFFFFFFFFFFFF AND CALLER PUSH20 0xFFFFFFFFFFFFFFFFFFFFFFFFFFFFFFFFFFFFFFFF AND EQ PUSH2 0x1A1 JUMPI PUSH1 0x40 MLOAD PUSH32 0x8C379A000000000000000000000000000000000000000000000000000000000 DUP2 MSTORE PUSH1 0x4 ADD PUSH2 0x198 SWAP1 PUSH2 0x6D2 JUMP JUMPDEST PUSH1 0x40 MLOAD DUP1 SWAP2 SUB SWAP1 REVERT JUMPDEST SELFBALANCE DUP2 GT ISZERO PUSH2 0x1E4 JUMPI PUSH1 0x40 MLOAD PUSH32 0x8C379A000000000000000000000000000000000000000000000000000000000 DUP2 MSTORE PUSH1 0x4 ADD PUSH2 0x1DB SWAP1 PUSH2 0x73A JUMP JUMPDEST PUSH1 0x40 MLOAD DUP1 SWAP2 SUB SWAP1 REVERT JUMPDEST PUSH0 PUSH0 SWAP1 SLOAD SWAP1 PUSH2 0x100 EXP SWAP1 DIV PUSH20 0xFFFFFFFFFFFFFFFFFFFFFFFFFFFFFFFFFFFFFFFF AND PUSH20 0xFFFFFFFFFFFFFFFFFFFFFFFFFFFFFFFFFFFFFFFF AND PUSH2 0x8FC DUP3 SWAP1 DUP2 ISZERO MUL SWAP1 PUSH1 0x40 MLOAD PUSH0 PUSH1 0x40 MLOAD DUP1 DUP4 SUB DUP2 DUP6 DUP9 DUP9 CALL SWAP4 POP POP POP POP ISZERO DUP1 ISZERO PUSH2 0x247 JUMPI RETURNDATASIZE PUSH0 PUSH0 RETURNDATACOPY RETURNDATASIZE PUSH0 REVERT JUMPDEST POP POP JUMP JUMPDEST PUSH0 CALLVALUE GT PUSH2 0x28D JUMPI PUSH1 0x40 MLOAD PUSH32 0x8C379A000000000000000000000000000000000000000000000000000000000 DUP2 MSTORE PUSH1 0x4 ADD PUSH2 0x284 SWAP1 PUSH2 0x7A2 JUMP JUMPDEST PUSH1 0x40 MLOAD DUP1 SWAP2 SUB SWAP1 REVERT JUMPDEST PUSH1 0x2 CALLVALUE PUSH2 0x29A SWAP2 SWAP1 PUSH2 0x7ED JUMP JUMPDEST SELFBALANCE LT ISZERO PUSH2 0x2DC JUMPI PUSH1 0x40 MLOAD PUSH32 0x8C379A000000000000000000000000000000000000000000000000000000000 DUP2 MSTORE PUSH1 0x4 ADD PUSH2 0x2D3 SWAP1 PUSH2 0x878 JUMP JUMPDEST PUSH1 0x40 MLOAD DUP1 SWAP2 SUB SWAP1 REVERT JUMPDEST PUSH1 0x3 DUP2 PUSH1 0xFF AND LT PUSH2 0x322 JUMPI PUSH1 0x40 MLOAD PUSH32 0x8C379A000000000000000000000000000000000000000000000000000000000 DUP2 MSTORE PUSH1 0x4 ADD PUSH2 0x319 SWAP1 PUSH2 0x8E0 JUMP JUMPDEST PUSH1 0x40 MLOAD DUP1 SWAP2 SUB SWAP1 REVERT JUMPDEST PUSH0 PUSH1 0x3 TIMESTAMP NUMBER CALLER PUSH1 0x40 MLOAD PUSH1 0x20 ADD PUSH2 0x33A SWAP4 SWAP3 SWAP2 SWAP1 PUSH2 0x963 JUMP JUMPDEST PUSH1 0x40 MLOAD PUSH1 0x20 DUP2 DUP4 SUB SUB DUP2 MSTORE SWAP1 PUSH1 0x40 MSTORE DUP1 MLOAD SWAP1 PUSH1 0x20 ADD KECCAK256 PUSH0 SHR PUSH2 0x35C SWAP2 SWAP1 PUSH2 0x9CC JUMP JUMPDEST SWAP1 POP PUSH0 DUP2 PUSH1 0xFF AND DUP4 PUSH1 0xFF AND EQ SWAP1 POP DUP1 ISZERO PUSH2 0x426 JUMPI PUSH0 CALLER PUSH20 0xFFFFFFFFFFFFFFFFFFFFFFFFFFFFFFFFFFFFFFFF AND PUSH1 0x2 CALLVALUE PUSH2 0x395 SWAP2 SWAP1 PUSH2 0x7ED JUMP JUMPDEST PUSH1 0x40 MLOAD PUSH2 0x3A1 SWAP1 PUSH2 0xA29 JUMP JUMPDEST PUSH0 PUSH1 0x40 MLOAD DUP1 DUP4 SUB DUP2 DUP6 DUP8 GAS CALL SWAP3 POP POP POP RETURNDATASIZE DUP1 PUSH0 DUP2 EQ PUSH2 0x3DB JUMPI PUSH1 0x40 MLOAD SWAP2 POP PUSH1 0x1F NOT PUSH1 0x3F RETURNDATASIZE ADD AND DUP3 ADD PUSH1 0x40 MSTORE RETURNDATASIZE DUP3 MSTORE RETURNDATASIZE PUSH0 PUSH1 0x20 DUP5 ADD RETURNDATACOPY PUSH2 0x3E0 JUMP JUMPDEST PUSH1 0x60 SWAP2 POP JUMPDEST POP POP SWAP1 POP DUP1 PUSH2 0x424 JUMPI PUSH1 0x40 MLOAD PUSH32 0x8C379A000000000000000000000000000000000000000000000000000000000 DUP2 MSTORE PUSH1 0x4 ADD PUSH2 0x41B SWAP1 PUSH2 0xA87 JUMP JUMPDEST PUSH1 0x40 MLOAD DUP1 SWAP2 SUB SWAP1 REVERT JUMPDEST POP JUMPDEST CALLER PUSH20 0xFFFFFFFFFFFFFFFFFFFFFFFFFFFFFFFFFFFFFFFF AND PUSH32 0x7473F770BC80B579D2F3BE930416C6005D23C61EC7868A78414A9CBA54E37751 CALLVALUE DUP4 DUP7 DUP7 PUSH1 0x40 MLOAD PUSH2 0x472 SWAP5 SWAP4 SWAP3 SWAP2 SWAP1 PUSH2 0xACE JUMP JUMPDEST PUSH1 0x40 MLOAD DUP1 SWAP2 SUB SWAP1 LOG2 POP POP POP JUMP JUMPDEST PUSH0 PUSH0 SWAP1 SLOAD SWAP1 PUSH2 0x100 EXP SWAP1 DIV PUSH20 0xFFFFFFFFFFFFFFFFFFFFFFFFFFFFFFFFFFFFFFFF AND DUP2 JUMP JUMPDEST PUSH0 CALLVALUE GT PUSH2 0x4E5 JUMPI PUSH1 0x40 MLOAD PUSH32 0x8C379A000000000000000000000000000000000000000000000000000000000 DUP2 MSTORE PUSH1 0x4 ADD PUSH2 0x4DC SWAP1 PUSH2 0xB5B JUMP JUMPDEST PUSH1 0x40 MLOAD DUP1 SWAP2 SUB SWAP1 REVERT JUMPDEST CALLER PUSH20 0xFFFFFFFFFFFFFFFFFFFFFFFFFFFFFFFFFFFFFFFF AND PUSH32 0x5AF8184BEF8E4B45EB9F6ED7734D04DA38CED226495548F46E0C8FF8D7D9A524 CALLVALUE PUSH1 0x40 MLOAD PUSH2 0x52B SWAP2 SWAP1 PUSH2 0x54D JUMP JUMPDEST PUSH1 0x40 MLOAD DUP1 SWAP2 SUB SWAP1 LOG2 JUMP JUMPDEST PUSH0 DUP2 SWAP1 POP SWAP2 SWAP1 POP JUMP JUMPDEST PUSH2 0x547 DUP2 PUSH2 0x535 JUMP JUMPDEST DUP3 MSTORE POP POP JUMP JUMPDEST PUSH0 PUSH1 0x20 DUP3 ADD SWAP1 POP PUSH2 0x560 PUSH0 DUP4 ADD DUP5 PUSH2 0x53E JUMP JUMPDEST SWAP3 SWAP2 POP POP JUMP JUMPDEST PUSH0 PUSH0 REVERT JUMPDEST PUSH2 0x573 DUP2 PUSH2 0x535 JUMP JUMPDEST DUP2 EQ PUSH2 0x57D JUMPI PUSH0 PUSH0 REVERT JUMPDEST POP JUMP JUMPDEST PUSH0 DUP2 CALLDATALOAD SWAP1 POP PUSH2 0x58E DUP2 PUSH2 0x56A JUMP JUMPDEST SWAP3 SWAP2 POP POP JUMP JUMPDEST PUSH0 PUSH1 0x20 DUP3 DUP5 SUB SLT ISZERO PUSH2 0x5A9 JUMPI PUSH2 0x5A8 PUSH2 0x566 JUMP JUMPDEST JUMPDEST PUSH0 PUSH2 0x5B6 DUP5 DUP3 DUP6 ADD PUSH2 0x580 JUMP JUMPDEST SWAP2 POP POP SWAP3 SWAP2 POP POP JUMP JUMPDEST PUSH0 PUSH1 0xFF DUP3 AND SWAP1 POP SWAP2 SWAP1 POP JUMP JUMPDEST PUSH2 0x5D4 DUP2 PUSH2 0x5BF JUMP JUMPDEST DUP2 EQ PUSH2 0x5DE JUMPI PUSH0 PUSH0 REVERT JUMPDEST POP JUMP JUMPDEST PUSH0 DUP2 CALLDATALOAD SWAP1 POP PUSH2 0x5EF DUP2 PUSH2 0x5CB JUMP JUMPDEST SWAP3 SWAP2 POP POP JUMP JUMPDEST PUSH0 PUSH1 0x20 DUP3 DUP5 SUB SLT ISZERO PUSH2 0x60A JUMPI PUSH2 0x609 PUSH2 0x566 JUMP JUMPDEST JUMPDEST PUSH0 PUSH2 0x617 DUP5 DUP3 DUP6 ADD PUSH2 0x5E1 JUMP JUMPDEST SWAP2 POP POP SWAP3 SWAP2 POP POP JUMP JUMPDEST PUSH0 PUSH20 0xFFFFFFFFFFFFFFFFFFFFFFFFFFFFFFFFFFFFFFFF DUP3 AND SWAP1 POP SWAP2 SWAP1 POP JUMP JUMPDEST PUSH0 PUSH2 0x649 DUP3 PUSH2 0x620 JUMP JUMPDEST SWAP1 POP SWAP2 SWAP1 POP JUMP JUMPDEST PUSH2 0x659 DUP2 PUSH2 0x63F JUMP JUMPDEST DUP3 MSTORE POP POP JUMP JUMPDEST PUSH0 PUSH1 0x20 DUP3 ADD SWAP1 POP PUSH2 0x672 PUSH0 DUP4 ADD DUP5 PUSH2 0x650 JUMP JUMPDEST SWAP3 SWAP2 POP POP JUMP JUMPDEST PUSH0 DUP3 DUP3 MSTORE PUSH1 0x20 DUP3 ADD SWAP1 POP SWAP3 SWAP2 POP POP JUMP JUMPDEST PUSH32 0x6E6F74206F776E65720000000000000000000000000000000000000000000000 PUSH0 DUP3 ADD MSTORE POP JUMP JUMPDEST PUSH0 PUSH2 0x6BC PUSH1 0x9 DUP4 PUSH2 0x678 JUMP JUMPDEST SWAP2 POP PUSH2 0x6C7 DUP3 PUSH2 0x688 JUMP JUMPDEST PUSH1 0x20 DUP3 ADD SWAP1 POP SWAP2 SWAP1 POP JUMP JUMPDEST PUSH0 PUSH1 0x20 DUP3 ADD SWAP1 POP DUP2 DUP2 SUB PUSH0 DUP4 ADD MSTORE PUSH2 0x6E9 DUP2 PUSH2 0x6B0 JUMP JUMPDEST SWAP1 POP SWAP2 SWAP1 POP JUMP JUMPDEST PUSH32 0x746F6F206D756368000000000000000000000000000000000000000000000000 PUSH0 DUP3 ADD MSTORE POP JUMP JUMPDEST PUSH0 PUSH2 0x724 PUSH1 0x8 DUP4 PUSH2 0x678 JUMP JUMPDEST SWAP2 POP PUSH2 0x72F DUP3 PUSH2 0x6F0 JUMP JUMPDEST PUSH1 0x20 DUP3 ADD SWAP1 POP SWAP2 SWAP1 POP JUMP JUMPDEST PUSH0 PUSH1 0x20 DUP3 ADD SWAP1 POP DUP2 DUP2 SUB PUSH0 DUP4 ADD MSTORE PUSH2 0x751 DUP2 PUSH2 0x718 JUMP JUMPDEST SWAP1 POP SWAP2 SWAP1 POP JUMP JUMPDEST PUSH32 0x4D7573742073656E64204D4F4E20746F20706C61790000000000000000000000 PUSH0 DUP3 ADD MSTORE POP JUMP JUMPDEST PUSH0 PUSH2 0x78C PUSH1 0x15 DUP4 PUSH2 0x678 JUMP JUMPDEST SWAP2 POP PUSH2 0x797 DUP3 PUSH2 0x758 JUMP JUMPDEST PUSH1 0x20 DUP3 ADD SWAP1 POP SWAP2 SWAP1 POP JUMP JUMPDEST PUSH0 PUSH1 0x20 DUP3 ADD SWAP1 POP DUP2 DUP2 SUB PUSH0 DUP4 ADD MSTORE PUSH2 0x7B9 DUP2 PUSH2 0x780 JUMP JUMPDEST SWAP1 POP SWAP2 SWAP1 POP JUMP JUMPDEST PUSH32 0x4E487B7100000000000000000000000000000000000000000000000000000000 PUSH0 MSTORE PUSH1 0x11 PUSH1 0x4 MSTORE PUSH1 0x24 PUSH0 REVERT JUMPDEST PUSH0 PUSH2 0x7F7 DUP3 PUSH2 0x535 JUMP JUMPDEST SWAP2 POP PUSH2 0x802 DUP4 PUSH2 0x535 JUMP JUMPDEST SWAP3 POP DUP3 DUP3 MUL PUSH2 0x810 DUP2 PUSH2 0x535 JUMP JUMPDEST SWAP2 POP DUP3 DUP3 DIV DUP5 EQ DUP4 ISZERO OR PUSH2 0x827 JUMPI PUSH2 0x826 PUSH2 0x7C0 JUMP JUMPDEST JUMPDEST POP SWAP3 SWAP2 POP POP JUMP JUMPDEST PUSH32 0x62616E6B726F6C6C20746F6F206C6F7700000000000000000000000000000000 PUSH0 DUP3 ADD MSTORE POP JUMP JUMPDEST PUSH0 PUSH2 0x862 PUSH1 0x10 DUP4 PUSH2 0x678 JUMP JUMPDEST SWAP2 POP PUSH2 0x86D DUP3 PUSH2 0x82E JUMP JUMPDEST PUSH1 0x20 DUP3 ADD SWAP1 POP SWAP2 SWAP1 POP JUMP JUMPDEST PUSH0 PUSH1 0x20 DUP3 ADD SWAP1 POP DUP2 DUP2 SUB PUSH0 DUP4 ADD MSTORE PUSH2 0x88F DUP2 PUSH2 0x856 JUMP JUMPDEST SWAP1 POP SWAP2 SWAP1 POP JUMP JUMPDEST PUSH32 0x696E76616C696420677565737300000000000000000000000000000000000000 PUSH0 DUP3 ADD MSTORE POP JUMP JUMPDEST PUSH0 PUSH2 0x8CA PUSH1 0xD DUP4 PUSH2 0x678 JUMP JUMPDEST SWAP2 POP PUSH2 0x8D5 DUP3 PUSH2 0x896 JUMP JUMPDEST PUSH1 0x20 DUP3 ADD SWAP1 POP SWAP2 SWAP1 POP JUMP JUMPDEST PUSH0 PUSH1 0x20 DUP3 ADD SWAP1 POP DUP2 DUP2 SUB PUSH0 DUP4 ADD MSTORE PUSH2 0x8F7 DUP2 PUSH2 0x8BE JUMP JUMPDEST SWAP1 POP SWAP2 SWAP1 POP JUMP JUMPDEST PUSH0 DUP2 SWAP1 POP SWAP2 SWAP1 POP JUMP JUMPDEST PUSH2 0x918 PUSH2 0x913 DUP3 PUSH2 0x535 JUMP JUMPDEST PUSH2 0x8FE JUMP JUMPDEST DUP3 MSTORE POP POP JUMP JUMPDEST PUSH0 DUP2 PUSH1 0x60 SHL SWAP1 POP SWAP2 SWAP1 POP JUMP JUMPDEST PUSH0 PUSH2 0x934 DUP3 PUSH2 0x91E JUMP JUMPDEST SWAP1 POP SWAP2 SWAP1 POP JUMP JUMPDEST PUSH0 PUSH2 0x945 DUP3 PUSH2 0x92A JUMP JUMPDEST SWAP1 POP SWAP2 SWAP1 POP JUMP JUMPDEST PUSH2 0x95D PUSH2 0x958 DUP3 PUSH2 0x63F JUMP JUMPDEST PUSH2 0x93B JUMP JUMPDEST DUP3 MSTORE POP POP JUMP JUMPDEST PUSH0 PUSH2 0x96E DUP3 DUP7 PUSH2 0x907 JUMP JUMPDEST PUSH1 0x20 DUP3 ADD SWAP2 POP PUSH2 0x97E DUP3 DUP6 PUSH2 0x907 JUMP JUMPDEST PUSH1 0x20 DUP3 ADD SWAP2 POP PUSH2 0x98E DUP3 DUP5 PUSH2 0x94C JUMP JUMPDEST PUSH1 0x14 DUP3 ADD SWAP2 POP DUP2 SWAP1 POP SWAP5 SWAP4 POP POP POP POP JUMP JUMPDEST PUSH32 0x4E487B7100000000000000000000000000000000000000000000000000000000 PUSH0 MSTORE PUSH1 0x12 PUSH1 0x4 MSTORE PUSH1 0x24 PUSH0 REVERT JUMPDEST PUSH0 PUSH2 0x9D6 DUP3 PUSH2 0x535 JUMP JUMPDEST SWAP2 POP PUSH2 0x9E1 DUP4 PUSH2 0x535 JUMP JUMPDEST SWAP3 POP DUP3 PUSH2 0x9F1 JUMPI PUSH2 0x9F0 PUSH2 0x99F JUMP JUMPDEST JUMPDEST DUP3 DUP3 MOD SWAP1 POP SWAP3 SWAP2 POP POP JUMP JUMPDEST PUSH0 DUP2 SWAP1 POP SWAP3 SWAP2 POP POP JUMP JUMPDEST POP JUMP JUMPDEST PUSH0 PUSH2 0xA14 PUSH0 DUP4 PUSH2 0x9FC JUMP JUMPDEST SWAP2 POP PUSH2 0xA1F DUP3 PUSH2 0xA06 JUMP JUMPDEST PUSH0 DUP3 ADD SWAP1 POP SWAP2 SWAP1 POP JUMP JUMPDEST PUSH0 PUSH2 0xA33 DUP3 PUSH2 0xA09 JUMP JUMPDEST SWAP2 POP DUP2 SWAP1 POP SWAP2 SWAP1 POP JUMP JUMPDEST PUSH32 0x7061796F7574206661696C656400000000000000000000000000000000000000 PUSH0 DUP3 ADD MSTORE POP JUMP JUMPDEST PUSH0 PUSH2 0xA71 PUSH1 0xD DUP4 PUSH2 0x678 JUMP JUMPDEST SWAP2 POP PUSH2 0xA7C DUP3 PUSH2 0xA3D JUMP JUMPDEST PUSH1 0x20 DUP3 ADD SWAP1 POP SWAP2 SWAP1 POP JUMP JUMPDEST PUSH0 PUSH1 0x20 DUP3 ADD SWAP1 POP DUP2 DUP2 SUB PUSH0 DUP4 ADD MSTORE PUSH2 0xA9E DUP2 PUSH2 0xA65 JUMP JUMPDEST SWAP1 POP SWAP2 SWAP1 POP JUMP JUMPDEST PUSH0 DUP2 ISZERO ISZERO SWAP1 POP SWAP2 SWAP1 POP JUMP JUMPDEST PUSH2 0xAB9 DUP2 PUSH2 0xAA5 JUMP JUMPDEST DUP3 MSTORE POP POP JUMP JUMPDEST PUSH2 0xAC8 DUP2 PUSH2 0x5BF JUMP JUMPDEST DUP3 MSTORE POP POP JUMP JUMPDEST PUSH0 PUSH1 0x80 DUP3 ADD SWAP1 POP PUSH2 0xAE1 PUSH0 DUP4 ADD DUP8 PUSH2 0x53E JUMP JUMPDEST PUSH2 0xAEE PUSH1 0x20 DUP4 ADD DUP7 PUSH2 0xAB0 JUMP JUMPDEST PUSH2 0xAFB PUSH1 0x40 DUP4 ADD DUP6 PUSH2 0xABF JUMP JUMPDEST PUSH2 0xB08 PUSH1 0x60 DUP4 ADD DUP5 PUSH2 0xABF JUMP JUMPDEST SWAP6 SWAP5 POP POP POP POP POP JUMP JUMPDEST PUSH32 0x4D7573742073656E64204D4F4E00000000000000000000000000000000000000 PUSH0 DUP3 ADD MSTORE POP JUMP JUMPDEST PUSH0 PUSH2 0xB45 PUSH1 0xD DUP4 PUSH2 0x678 JUMP JUMPDEST SWAP2 POP PUSH2 0xB50 DUP3 PUSH2 0xB11 JUMP JUMPDEST PUSH1 0x20 DUP3 ADD SWAP1 POP SWAP2 SWAP1 POP JUMP JUMPDEST PUSH0 PUSH1 0x20 DUP3 ADD SWAP1 POP DUP2 DUP2 SUB PUSH0 DUP4 ADD MSTORE PUSH2 0xB72 DUP2 PUSH2 0xB39 JUMP JUMPDEST SWAP1 POP SWAP2 SWAP1 POP JUMP INVALID LOG2 PUSH5 0x6970667358 0x22 SLT KECCAK256 0x4B SWAP11 0xC7 0x4E PUSH4 0x2FEF7F4F PUSH1 0x23 BLOBBASEFEE ADD LOG3 0xC8 RJUMPI 0xBBF7 SLT EXTSTATICCALL RJUMPI 0x70A1 SWAP16 SWAP8 0x28 0xC7 PREVRANDAO 0xAC EQ 0xEB DELEGATECALL PUSH5 0x736F6C6343 STOP ADDMOD 0x1E STOP CALLER "
		},
		"gasEstimates": {
			"creation": {
				"codeDepositCost": "598200",
				"executionCost": "24870",
				"totalCost": "623070"
			},
			"external": {
				"fund()": "1754",
				"owner()": "2529",
				"play(uint8)": "infinite",
				"withdraw(uint256)": "infinite"
			}
		},
		"methodIdentifiers": {
			"fund()": "b60d4288",
			"owner()": "8da5cb5b",
			"play(uint8)": "53a04b05",
			"withdraw(uint256)": "2e1a7d4d"
		}
	},
	"abi": [
		{
			"inputs": [],
			"stateMutability": "payable",
			"type": "constructor"
		},
		{
			"anonymous": false,
			"inputs": [
				{
					"indexed": true,
					"internalType": "address",
					"name": "funder",
					"type": "address"
				},
				{
					"indexed": false,
					"internalType": "uint256",
					"name": "amount",
					"type": "uint256"
				}
			],
			"name": "Funded",
			"type": "event"
		},
		{
			"anonymous": false,
			"inputs": [
				{
					"indexed": true,
					"internalType": "address",
					"name": "player",
					"type": "address"
				},
				{
					"indexed": false,
					"internalType": "uint256",
					"name": "amount",
					"type": "uint256"
				},
				{
					"indexed": false,
					"internalType": "bool",
					"name": "win",
					"type": "bool"
				},
				{
					"indexed": false,
					"internalType": "uint8",
					"name": "guess",
					"type": "uint8"
				},
				{
					"indexed": false,
					"internalType": "uint8",
					"name": "correct",
					"type": "uint8"
				}
			],
			"name": "Played",
			"type": "event"
		},
		{
			"inputs": [],
			"name": "fund",
			"outputs": [],
			"stateMutability": "payable",
			"type": "function"
		},
		{
			"inputs": [],
			"name": "owner",
			"outputs": [
				{
					"internalType": "address",
					"name": "",
					"type": "address"
				}
			],
			"stateMutability": "view",
			"type": "function"
		},
		{
			"inputs": [
				{
					"internalType": "uint8",
					"name": "guess",
					"type": "uint8"
				}
			],
			"name": "play",
			"outputs": [],
			"stateMutability": "payable",
			"type": "function"
		},
		{
			"inputs": [
				{
					"internalType": "uint256",
					"name": "amount",
					"type": "uint256"
				}
			],
			"name": "withdraw",
			"outputs": [],
			"stateMutability": "nonpayable",
			"type": "function"
		},
		{
			"stateMutability": "payable",
			"type": "receive"
		}
	]
}