{
	"data": {
		"bytecode": {
			"linkReferences": {},
			"object": "6080604052662386f26fc10000600155670de0b6b3a7640000600255348015610026575f80fd5b50335f806101000a81548173ffffffffffffffffffffffffffffffffffffffff021916908373ffffffffffffffffffffffffffffffffffffffff160217905550610d4a806100735f395ff3fe608060405260043610610073575f3560e01c80636898f82b1161004d5780636898f82b146101945780638da5cb5b146101b05780639619367d146101da578063b60d428814610204576100c8565b80630d1fce42146101185780632e1a7d4d146101425780632e5b21681461016a576100c8565b366100c8573373ffffffffffffffffffffffffffffffffffffffff167f5af8184bef8e4b45eb9f6ed7734d04da38ced226495548f46e0c8ff8d7d9a524346040516100be9190610711565b60405180910390a2005b3373ffffffffffffffffffffffffffffffffffffffff167f5af8184bef8e4b45eb9f6ed7734d04da38ced226495548f46e0c8ff8d7d9a5243460405161010e9190610711565b60405180910390a2005b348015610123575f80fd5b5061012c61020e565b6040516101399190610711565b60405180910390f35b34801561014d575f80fd5b5061016860048036038101906101639190610758565b610215565b005b348015610175575f80fd5b5061017e61041e565b60405161018b9190610711565b60405180910390f35b6101ae60048036038101906101a99190610758565b610424565b005b3480156101bb575f80fd5b506101c461063e565b6040516101d191906107c2565b60405180910390f35b3480156101e5575f80fd5b506101ee610661565b6040516101fb9190610711565b60405180910390f35b61020c610667565b005b5f47905090565b5f8054906101000a900473ffffffffffffffffffffffffffffffffffffffff1673ffffffffffffffffffffffffffffffffffffffff163373ffffffffffffffffffffffffffffffffffffffff16146102a2576040517f08c379a000000000000000000000000000000000000000000000000000000000815260040161029990610835565b60405180910390fd5b478111156102e5576040517f08c379a00000000000000000000000000000000000000000000000000000000081526004016102dc9061089d565b60405180910390fd5b5f805f9054906101000a900473ffffffffffffffffffffffffffffffffffffffff1673ffffffffffffffffffffffffffffffffffffffff168260405161032a906108e8565b5f6040518083038185875af1925050503d805f8114610364576040519150601f19603f3d011682016040523d82523d5f602084013e610369565b606091505b50509050806103ad576040517f08c379a00000000000000000000000000000000000000000000000000000000081526004016103a490610946565b60405180910390fd5b5f8054906101000a900473ffffffffffffffffffffffffffffffffffffffff1673ffffffffffffffffffffffffffffffffffffffff167f884edad9ce6fa2440d8a54cc123490eb96d2768479d49ff9c7366125a9424364836040516104129190610711565b60405180910390a25050565b60025481565b600154341015801561043857506002543411155b610477576040517f08c379a000000000000000000000000000000000000000000000000000000000815260040161046e906109ae565b60405180910390fd5b60023461048491906109f9565b4710156104c6576040517f08c379a00000000000000000000000000000000000000000000000000000000081526004016104bd90610a84565b60405180910390fd5b60035f8154809291906104d890610aa2565b91905055505f600344336003546040516020016104f793929190610b4e565b604051602081830303815290604052805190602001205f1c6105199190610bb7565b90505f81831490505f81156105e15760023461053591906109f9565b90505f3373ffffffffffffffffffffffffffffffffffffffff168260405161055c906108e8565b5f6040518083038185875af1925050503d805f8114610596576040519150601f19603f3d011682016040523d82523d5f602084013e61059b565b606091505b50509050806105df576040517f08c379a00000000000000000000000000000000000000000000000000000000081526004016105d690610c31565b60405180910390fd5b505b6003543373ffffffffffffffffffffffffffffffffffffffff167f8e4fc7f2d473aba6db016845c709cdefbc58abedaab08806f985af7d3d2631bb868686866040516106309493929190610c69565b60405180910390a350505050565b5f8054906101000a900473ffffffffffffffffffffffffffffffffffffffff1681565b60015481565b5f34116106a9576040517f08c379a00000000000000000000000000000000000000000000000000000000081526004016106a090610cf6565b60405180910390fd5b3373ffffffffffffffffffffffffffffffffffffffff167f5af8184bef8e4b45eb9f6ed7734d04da38ced226495548f46e0c8ff8d7d9a524346040516106ef9190610711565b60405180910390a2565b5f819050919050565b61070b816106f9565b82525050565b5f6020820190506107245f830184610702565b92915050565b5f80fd5b610737816106f9565b8114610741575f80fd5b50565b5f813590506107528161072e565b92915050565b5f6020828403121561076d5761076c61072a565b5b5f61077a84828501610744565b91505092915050565b5f73ffffffffffffffffffffffffffffffffffffffff82169050919050565b5f6107ac82610783565b9050919050565b6107bc816107a2565b82525050565b5f6020820190506107d55f8301846107b3565b92915050565b5f82825260208201905092915050565b7f4e6f74206f776e657200000000000000000000000000000000000000000000005f82015250565b5f61081f6009836107db565b915061082a826107eb565b602082019050919050565b5f6020820190508181035f83015261084c81610813565b9050919050565b7f4e6f7420656e6f7567682066756e6473000000000000000000000000000000005f82015250565b5f6108876010836107db565b915061089282610853565b602082019050919050565b5f6020820190508181035f8301526108b48161087b565b9050919050565b5f81905092915050565b50565b5f6108d35f836108bb565b91506108de826108c5565b5f82019050919050565b5f6108f2826108c8565b9150819050919050565b7f5769746864726177206661696c656400000000000000000000000000000000005f82015250565b5f610930600f836107db565b915061093b826108fc565b602082019050919050565b5f6020820190508181035f83015261095d81610924565b9050919050565b7f426574206f7574206f662072616e6765000000000000000000000000000000005f82015250565b5f6109986010836107db565b91506109a382610964565b602082019050919050565b5f6020820190508181035f8301526109c58161098c565b9050919050565b7f4e487b71000000000000000000000000000000000000000000000000000000005f52601160045260245ffd5b5f610a03826106f9565b9150610a0e836106f9565b9250828202610a1c816106f9565b91508282048414831517610a3357610a326109cc565b5b5092915050565b7f62616e6b726f6c6c20746f6f206c6f77000000000000000000000000000000005f82015250565b5f610a6e6010836107db565b9150610a7982610a3a565b602082019050919050565b5f6020820190508181035f830152610a9b81610a62565b9050919050565b5f610aac826106f9565b91507fffffffffffffffffffffffffffffffffffffffffffffffffffffffffffffffff8203610ade57610add6109cc565b5b600182019050919050565b5f819050919050565b610b03610afe826106f9565b610ae9565b82525050565b5f8160601b9050919050565b5f610b1f82610b09565b9050919050565b5f610b3082610b15565b9050919050565b610b48610b43826107a2565b610b26565b82525050565b5f610b598286610af2565b602082019150610b698285610b37565b601482019150610b798284610af2565b602082019150819050949350505050565b7f4e487b71000000000000000000000000000000000000000000000000000000005f52601260045260245ffd5b5f610bc1826106f9565b9150610bcc836106f9565b925082610bdc57610bdb610b8a565b5b828206905092915050565b7f5061796f7574206661696c6564000000000000000000000000000000000000005f82015250565b5f610c1b600d836107db565b9150610c2682610be7565b602082019050919050565b5f6020820190508181035f830152610c4881610c0f565b9050919050565b5f8115159050919050565b610c6381610c4f565b82525050565b5f608082019050610c7c5f830187610702565b610c896020830186610702565b610c966040830185610c5a565b610ca36060830184610702565b95945050505050565b7f4d7573742073656e64204d4f4e20746f2066756e6400000000000000000000005f82015250565b5f610ce06015836107db565b9150610ceb82610cac565b602082019050919050565b5f6020820190508181035f830152610d0d81610cd4565b905091905056fea264697066735822122073750648d403d06d1207fe672aad14e624a2842e4e46e6eafd4f49d83001526164736f6c63430008180033",
			"opcodes": "PUSH1 0x80 PUSH1 0x40 MSTORE PUSH7 0x2386F26FC10000 PUSH1 0x1 SSTORE PUSH8 0xDE0B6B3A7640000 PUSH1 0x2 SSTORE CALLVALUE DUP1 ISZERO PUSH2 0x26 JUMPI PUSH0 DUP1 REVERT JUMPDEST POP CALLER PUSH0 DUP1 PUSH2 0x100 EXP DUP2 SLOAD DUP2 PUSH20 0xFFFFFFFFFFFFFFFFFFFFFFFFFFFFFFFFFFFFFFFF MUL NOT AND SWAP1 DUP4 PUSH20 0xFFFFFFFFFFFFFFFFFFFFFFFFFFFFFFFFFFFFFFFF AND MUL OR SWAP1 SSTORE POP PUSH2 0xD4A DUP1 PUSH2 0x73 PUSH0 CODECOPY PUSH0 RETURN INVALID PUSH1 0x80 PUSH1 0x40 MSTORE PUSH1 0x4 CALLDATASIZE LT PUSH2 0x73 JUMPI PUSH0 CALLDATALOAD PUSH1 0xE0 SHR DUP1 PUSH4 0x6898F82B GT PUSH2 0x4D JUMPI DUP1 PUSH4 0x6898F82B EQ PUSH2 0x194 JUMPI DUP1 PUSH4 0x8DA5CB5B EQ PUSH2 0x1B0 JUMPI DUP1 PUSH4 0x9619367D EQ PUSH2 0x1DA JUMPI DUP1 PUSH4 0xB60D4288 EQ PUSH2 0x204 JUMPI PUSH2 0xC8 JUMP JUMPDEST DUP1 PUSH4 0xD1FCE42 EQ PUSH2 0x118 JUMPI DUP1 PUSH4 0x2E1A7D4D EQ PUSH2 0x142 JUMPI DUP1 PUSH4 0x2E5B2168 EQ PUSH2 0x16A JUMPI PUSH2 0xC8 JUMP JUMPDEST CALLDATASIZE PUSH2 0xC8 JUMPI CALLER PUSH20 0xFFFFFFFFFFFFFFFFFFFFFFFFFFFFFFFFFFFFFFFF AND PUSH32 0x5AF8184BEF8E4B45EB9F6ED7734D04DA38CED226495548F46E0C8FF8D7D9A524 CALLVALUE PUSH1 0x40 MLOAD PUSH2 0xBE SWAP2 SWAP1 PUSH2 0x711 JUMP JUMPDEST PUSH1 0x40 MLOAD DUP1 SWAP2 SUB SWAP1 LOG2 STOP JUMPDEST CALLER PUSH20 0xFFFFFFFFFFFFFFFFFFFFFFFFFFFFFFFFFFFFFFFF AND PUSH32 0x5AF8184BEF8E4B45EB9F6ED7734D04DA38CED226495548F46E0C8FF8D7D9A524 CALLVALUE PUSH1 0x40 MLOAD PUSH2 0x10E SWAP2 SWAP1 PUSH2 0x711 JUMP JUMPDEST PUSH1 0x40 MLOAD DUP1 SWAP2 SUB SWAP1 LOG2 STOP JUMPDEST CALLVALUE DUP1 ISZERO PUSH2 0x123 JUMPI PUSH0 DUP1 REVERT JUMPDEST POP PUSH2 0x12C PUSH2 0x20E JUMP JUMPDEST PUSH1 0x40 MLOAD PUSH2 0x139 SWAP2 SWAP1 PUSH2 0x711 JUMP JUMPDEST PUSH1 0x40 MLOAD DUP1 SWAP2 SUB SWAP1 RETURN JUMPDEST CALLVALUE DUP1 ISZERO PUSH2 0x14D JUMPI PUSH0 DUP1 REVERT JUMPDEST POP PUSH2 0x168 PUSH1 0x4 DUP1 CALLDATASIZE SUB DUP2 ADD SWAP1 PUSH2 0x163 SWAP2 SWAP1 PUSH2 0x758 JUMP JUMPDEST PUSH2 0x215 JUMP JUMPDEST STOP JUMPDEST CALLVALUE DUP1 ISZERO PUSH2 0x175 JUMPI PUSH0 DUP1 REVERT JUMPDEST POP PUSH2 0x17E PUSH2 0x41E JUMP JUMPDEST PUSH1 0x40 MLOAD PUSH2 0x18B SWAP2 SWAP1 PUSH2 0x711 JUMP JUMPDEST PUSH1 0x40 MLOAD DUP1 SWAP2 SUB SWAP1 RETURN JUMPDEST PUSH2 0x1AE PUSH1 0x4 DUP1 CALLDATASIZE SUB DUP2 ADD SWAP1 PUSH2 0x1A9 SWAP2 SWAP1 PUSH2 0x758 JUMP JUMPDEST PUSH2 0x424 JUMP JUMPDEST STOP JUMPDEST CALLVALUE DUP1 ISZERO PUSH2 0x1BB JUMPI PUSH0 DUP1 REVERT JUMPDEST POP PUSH2 0x1C4 PUSH2 0x63E JUMP JUMPDEST PUSH1 0x40 MLOAD PUSH2 0x1D1 SWAP2 SWAP1 PUSH2 0x7C2 JUMP JUMPDEST PUSH1 0x40 MLOAD DUP1 SWAP2 SUB SWAP1 RETURN JUMPDEST CALLVALUE DUP1 ISZERO PUSH2 0x1E5 JUMPI PUSH0 DUP1 REVERT JUMPDEST POP PUSH2 0x1EE PUSH2 0x661 JUMP JUMPDEST PUSH1 0x40 MLOAD PUSH2 0x1FB SWAP2 SWAP1 PUSH2 0x711 JUMP JUMPDEST PUSH1 0x40 MLOAD DUP1 SWAP2 SUB SWAP1 RETURN JUMPDEST PUSH2 0x20C PUSH2 0x667 JUMP JUMPDEST STOP JUMPDEST PUSH0 SELFBALANCE SWAP1 POP SWAP1 JUMP JUMPDEST PUSH0 DUP1 SLOAD SWAP1 PUSH2 0x100 EXP SWAP1 DIV PUSH20 0xFFFFFFFFFFFFFFFFFFFFFFFFFFFFFFFFFFFFFFFF AND PUSH20 0xFFFFFFFFFFFFFFFFFFFFFFFFFFFFFFFFFFFFFFFF AND CALLER PUSH20 0xFFFFFFFFFFFFFFFFFFFFFFFFFFFFFFFFFFFFFFFF AND EQ PUSH2 0x2A2 JUMPI PUSH1 0x40 MLOAD PUSH32 0x8C379A000000000000000000000000000000000000000000000000000000000 DUP2 MSTORE PUSH1 0x4 ADD PUSH2 0x299 SWAP1 PUSH2 0x835 JUMP JUMPDEST PUSH1 0x40 MLOAD DUP1 SWAP2 SUB SWAP1 REVERT JUMPDEST SELFBALANCE DUP2 GT ISZERO PUSH2 0x2E5 JUMPI PUSH1 0x40 MLOAD PUSH32 0x8C379A000000000000000000000000000000000000000000000000000000000 DUP2 MSTORE PUSH1 0x4 ADD PUSH2 0x2DC SWAP1 PUSH2 0x89D JUMP JUMPDEST PUSH1 0x40 MLOAD DUP1 SWAP2 SUB SWAP1 REVERT JUMPDEST PUSH0 DUP1 PUSH0 SWAP1 SLOAD SWAP1 PUSH2 0x100 EXP SWAP1 DIV PUSH20 0xFFFFFFFFFFFFFFFFFFFFFFFFFFFFFFFFFFFFFFFF AND PUSH20 0xFFFFFFFFFFFFFFFFFFFFFFFFFFFFFFFFFFFFFFFF AND DUP3 PUSH1 0x40 MLOAD PUSH2 0x32A SWAP1 PUSH2 0x8E8 JUMP JUMPDEST PUSH0 PUSH1 0x40 MLOAD DUP1 DUP4 SUB DUP2 DUP6 DUP8 GAS CALL SWAP3 POP POP POP RETURNDATASIZE DUP1 PUSH0 DUP2 EQ PUSH2 0x364 JUMPI PUSH1 0x40 MLOAD SWAP2 POP PUSH1 0x1F NOT PUSH1 0x3F RETURNDATASIZE ADD AND DUP3 ADD PUSH1 0x40 MSTORE RETURNDATASIZE DUP3 MSTORE RETURNDATASIZE PUSH0 PUSH1 0x20 DUP5 ADD RETURNDATACOPY PUSH2 0x369 JUMP JUMPDEST PUSH1 0x60 SWAP2 POP JUMPDEST POP POP SWAP1 POP DUP1 PUSH2 0x3AD JUMPI PUSH1 0x40 MLOAD PUSH32 0x8C379A000000000000000000000000000000000000000000000000000000000 DUP2 MSTORE PUSH1 0x4 ADD PUSH2 0x3A4 SWAP1 PUSH2 0x946 JUMP JUMPDEST PUSH1 0x40 MLOAD DUP1 SWAP2 SUB SWAP1 REVERT JUMPDEST PUSH0 DUP1 SLOAD SWAP1 PUSH2 0x100 EXP SWAP1 DIV PUSH20 0xFFFFFFFFFFFFFFFFFFFFFFFFFFFFFFFFFFFFFFFF AND PUSH20 0xFFFFFFFFFFFFFFFFFFFFFFFFFFFFFFFFFFFFFFFF AND PUSH32 0x884EDAD9CE6FA2440D8A54CC123490EB96D2768479D49FF9C7366125A9424364 DUP4 PUSH1 0x40 MLOAD PUSH2 0x412 SWAP2 SWAP1 PUSH2 0x711 JUMP JUMPDEST PUSH1 0x40 MLOAD DUP1 SWAP2 SUB SWAP1 LOG2 POP POP JUMP JUMPDEST PUSH1 0x2 SLOAD DUP2 JUMP JUMPDEST PUSH1 0x1 SLOAD CALLVALUE LT ISZERO DUP1 ISZERO PUSH2 0x438 JUMPI POP PUSH1 0x2 SLOAD CALLVALUE GT ISZERO JUMPDEST PUSH2 0x477 JUMPI PUSH1 0x40 MLOAD PUSH32 0x8C379A000000000000000000000000000000000000000000000000000000000 DUP2 MSTORE PUSH1 0x4 ADD PUSH2 0x46E SWAP1 PUSH2 0x9AE JUMP JUMPDEST PUSH1 0x40 MLOAD DUP1 SWAP2 SUB SWAP1 REVERT JUMPDEST PUSH1 0x2 CALLVALUE PUSH2 0x484 SWAP2 SWAP1 PUSH2 0x9F9 JUMP JUMPDEST SELFBALANCE LT ISZERO PUSH2 0x4C6 JUMPI PUSH1 0x40 MLOAD PUSH32 0x8C379A000000000000000000000000000000000000000000000000000000000 DUP2 MSTORE PUSH1 0x4 ADD PUSH2 0x4BD SWAP1 PUSH2 0xA84 JUMP JUMPDEST PUSH1 0x40 MLOAD DUP1 SWAP2 SUB SWAP1 REVERT JUMPDEST PUSH1 0x3 PUSH0 DUP2 SLOAD DUP1 SWAP3 SWAP2 SWAP1 PUSH2 0x4D8 SWAP1 PUSH2 0xAA2 JUMP JUMPDEST SWAP2 SWAP1 POP SSTORE POP PUSH0 PUSH1 0x3 PREVRANDAO CALLER PUSH1 0x3 SLOAD PUSH1 0x40 MLOAD PUSH1 0x20 ADD PUSH2 0x4F7 SWAP4 SWAP3 SWAP2 SWAP1 PUSH2 0xB4E JUMP JUMPDEST PUSH1 0x40 MLOAD PUSH1 0x20 DUP2 DUP4 SUB SUB DUP2 MSTORE SWAP1 PUSH1 0x40 MSTORE DUP1 MLOAD SWAP1 PUSH1 0x20 ADD KECCAK256 PUSH0 SHR PUSH2 0x519 SWAP2 SWAP1 PUSH2 0xBB7 JUMP JUMPDEST SWAP1 POP PUSH0 DUP2 DUP4 EQ SWAP1 POP PUSH0 DUP2 ISZERO PUSH2 0x5E1 JUMPI PUSH1 0x2 CALLVALUE PUSH2 0x535 SWAP2 SWAP1 PUSH2 0x9F9 JUMP JUMPDEST SWAP1 POP PUSH0 CALLER PUSH20 0xFFFFFFFFFFFFFFFFFFFFFFFFFFFFFFFFFFFFFFFF AND DUP3 PUSH1 0x40 MLOAD PUSH2 0x55C SWAP1 PUSH2 0x8E8 JUMP JUMPDEST PUSH0 PUSH1 0x40 MLOAD DUP1 DUP4 SUB DUP2 DUP6 DUP8 GAS CALL SWAP3 POP POP POP RETURNDATASIZE DUP1 PUSH0 DUP2 EQ PUSH2 0x596 JUMPI PUSH1 0x40 MLOAD SWAP2 POP PUSH1 0x1F NOT PUSH1 0x3F RETURNDATASIZE ADD AND DUP3 ADD PUSH1 0x40 MSTORE RETURNDATASIZE DUP3 MSTORE RETURNDATASIZE PUSH0 PUSH1 0x20 DUP5 ADD RETURNDATACOPY PUSH2 0x59B JUMP JUMPDEST PUSH1 0x60 SWAP2 POP JUMPDEST POP POP SWAP1 POP DUP1 PUSH2 0x5DF JUMPI PUSH1 0x40 MLOAD PUSH32 0x8C379A000000000000000000000000000000000000000000000000000000000 DUP2 MSTORE PUSH1 0x4 ADD PUSH2 0x5D6 SWAP1 PUSH2 0xC31 JUMP JUMPDEST PUSH1 0x40 MLOAD DUP1 SWAP2 SUB SWAP1 REVERT JUMPDEST POP JUMPDEST PUSH1 0x3 SLOAD CALLER PUSH20 0xFFFFFFFFFFFFFFFFFFFFFFFFFFFFFFFFFFFFFFFF AND PUSH32 0x8E4FC7F2D473ABA6DB016845C709CDEFBC58ABEDAAB08806F985AF7D3D2631BB DUP7 DUP7 DUP7 DUP7 PUSH1 0x40 MLOAD PUSH2 0x630 SWAP5 SWAP4 SWAP3 SWAP2 SWAP1 PUSH2 0xC69 JUMP JUMPDEST PUSH1 0x40 MLOAD DUP1 SWAP2 SUB SWAP1 LOG3 POP POP POP POP JUMP JUMPDEST PUSH0 DUP1 SLOAD SWAP1 PUSH2 0x100 EXP SWAP1 DIV PUSH20 0xFFFFFFFFFFFFFFFFFFFFFFFFFFFFFFFFFFFFFFFF AND DUP2 JUMP JUMPDEST PUSH1 0x1 SLOAD DUP2 JUMP JUMPDEST PUSH0 CALLVALUE GT PUSH2 0x6A9 JUMPI PUSH1 0x40 MLOAD PUSH32 0x8C379A000000000000000000000000000000000000000000000000000000000 DUP2 MSTORE PUSH1 0x4 ADD PUSH2 0x6A0 SWAP1 PUSH2 0xCF6 JUMP JUMPDEST PUSH1 0x40 MLOAD DUP1 SWAP2 SUB SWAP1 REVERT JUMPDEST CALLER PUSH20 0xFFFFFFFFFFFFFFFFFFFFFFFFFFFFFFFFFFFFFFFF AND PUSH32 0x5AF8184BEF8E4B45EB9F6ED7734D04DA38CED226495548F46E0C8FF8D7D9A524 CALLVALUE PUSH1 0x40 MLOAD PUSH2 0x6EF SWAP2 SWAP1 PUSH2 0x711 JUMP JUMPDEST PUSH1 0x40 MLOAD DUP1 SWAP2 SUB SWAP1 LOG2 JUMP JUMPDEST PUSH0 DUP2 SWAP1 POP SWAP2 SWAP1 POP JUMP JUMPDEST PUSH2 0x70B DUP2 PUSH2 0x6F9 JUMP JUMPDEST DUP3 MSTORE POP POP JUMP JUMPDEST PUSH0 PUSH1 0x20 DUP3 ADD SWAP1 POP PUSH2 0x724 PUSH0 DUP4 ADD DUP5 PUSH2 0x702 JUMP JUMPDEST SWAP3 SWAP2 POP POP JUMP JUMPDEST PUSH0 DUP1 REVERT JUMPDEST PUSH2 0x737 DUP2 PUSH2 0x6F9 JUMP JUMPDEST DUP2 EQ PUSH2 0x741 JUMPI PUSH0 DUP1 REVERT JUMPDEST POP JUMP JUMPDEST PUSH0 DUP2 CALLDATALOAD SWAP1 POP PUSH2 0x752 DUP2 PUSH2 0x72E JUMP JUMPDEST SWAP3 SWAP2 POP POP JUMP JUMPDEST PUSH0 PUSH1 0x20 DUP3 DUP5 SUB SLT ISZERO PUSH2 0x76D JUMPI PUSH2 0x76C PUSH2 0x72A JUMP JUMPDEST JUMPDEST PUSH0 PUSH2 0x77A DUP5 DUP3 DUP6 ADD PUSH2 0x744 JUMP JUMPDEST SWAP2 POP POP SWAP3 SWAP2 POP POP JUMP JUMPDEST PUSH0 PUSH20 0xFFFFFFFFFFFFFFFFFFFFFFFFFFFFFFFFFFFFFFFF DUP3 AND SWAP1 POP SWAP2 SWAP1 POP JUMP JUMPDEST PUSH0 PUSH2 0x7AC DUP3 PUSH2 0x783 JUMP JUMPDEST SWAP1 POP SWAP2 SWAP1 POP JUMP JUMPDEST PUSH2 0x7BC DUP2 PUSH2 0x7A2 JUMP JUMPDEST DUP3 MSTORE POP POP JUMP JUMPDEST PUSH0 PUSH1 0x20 DUP3 ADD SWAP1 POP PUSH2 0x7D5 PUSH0 DUP4 ADD DUP5 PUSH2 0x7B3 JUMP JUMPDEST SWAP3 SWAP2 POP POP JUMP JUMPDEST PUSH0 DUP3 DUP3 MSTORE PUSH1 0x20 DUP3 ADD SWAP1 POP SWAP3 SWAP2 POP POP JUMP JUMPDEST PUSH32 0x4E6F74206F776E65720000000000000000000000000000000000000000000000 PUSH0 DUP3 ADD MSTORE POP JUMP JUMPDEST PUSH0 PUSH2 0x81F PUSH1 0x9 DUP4 PUSH2 0x7DB JUMP JUMPDEST SWAP2 POP PUSH2 0x82A DUP3 PUSH2 0x7EB JUMP JUMPDEST PUSH1 0x20 DUP3 ADD SWAP1 POP SWAP2 SWAP1 POP JUMP JUMPDEST PUSH0 PUSH1 0x20 DUP3 ADD SWAP1 POP DUP2 DUP2 SUB PUSH0 DUP4 ADD MSTORE PUSH2 0x84C DUP2 PUSH2 0x813 JUMP JUMPDEST SWAP1 POP SWAP2 SWAP1 POP JUMP JUMPDEST PUSH32 0x4E6F7420656E6F7567682066756E647300000000000000000000000000000000 PUSH0 DUP3 ADD MSTORE POP JUMP JUMPDEST PUSH0 PUSH2 0x887 PUSH1 0x10 DUP4 PUSH2 0x7DB JUMP JUMPDEST SWAP2 POP PUSH2 0x892 DUP3 PUSH2 0x853 JUMP JUMPDEST PUSH1 0x20 DUP3 ADD SWAP1 POP SWAP2 SWAP1 POP JUMP JUMPDEST PUSH0 PUSH1 0x20 DUP3 ADD SWAP1 POP DUP2 DUP2 SUB PUSH0 DUP4 ADD MSTORE PUSH2 0x8B4 DUP2 PUSH2 0x87B JUMP JUMPDEST SWAP1 POP SWAP2 SWAP1 POP JUMP JUMPDEST PUSH0 DUP2 SWAP1 POP SWAP3 SWAP2 POP POP JUMP JUMPDEST POP JUMP JUMPDEST PUSH0 PUSH2 0x8D3 PUSH0 DUP4 PUSH2 0x8BB JUMP JUMPDEST SWAP2 POP PUSH2 0x8DE DUP3 PUSH2 0x8C5 JUMP JUMPDEST PUSH0 DUP3 ADD SWAP1 POP SWAP2 SWAP1 POP JUMP JUMPDEST PUSH0 PUSH2 0x8F2 DUP3 PUSH2 0x8C8 JUMP JUMPDEST SWAP2 POP DUP2 SWAP1 POP SWAP2 SWAP1 POP JUMP JUMPDEST PUSH32 0x5769746864726177206661696C65640000000000000000000000000000000000 PUSH0 DUP3 ADD MSTORE POP JUMP JUMPDEST PUSH0 PUSH2 0x930 PUSH1 0xF DUP4 PUSH2 0x7DB JUMP JUMPDEST SWAP2 POP PUSH2 0x93B DUP3 PUSH2 0x8FC JUMP JUMPDEST PUSH1 0x20 DUP3 ADD SWAP1 POP SWAP2 SWAP1 POP JUMP JUMPDEST PUSH0 PUSH1 0x20 DUP3 ADD SWAP1 POP DUP2 DUP2 SUB PUSH0 DUP4 ADD MSTORE PUSH2 0x95D DUP2 PUSH2 0x924 JUMP JUMPDEST SWAP1 POP SWAP2 SWAP1 POP JUMP JUMPDEST PUSH32 0x426574206F7574206F662072616E676500000000000000000000000000000000 PUSH0 DUP3 ADD MSTORE POP JUMP JUMPDEST PUSH0 PUSH2 0x998 PUSH1 0x10 DUP4 PUSH2 0x7DB JUMP JUMPDEST SWAP2 POP PUSH2 0x9A3 DUP3 PUSH2 0x964 JUMP JUMPDEST PUSH1 0x20 DUP3 ADD SWAP1 POP SWAP2 SWAP1 POP JUMP JUMPDEST PUSH0 PUSH1 0x20 DUP3 ADD SWAP1 POP DUP2 DUP2 SUB PUSH0 DUP4 ADD MSTORE PUSH2 0x9C5 DUP2 PUSH2 0x98C JUMP JUMPDEST SWAP1 POP SWAP2 SWAP1 POP JUMP JUMPDEST PUSH32 0x4E487B7100000000000000000000000000000000000000000000000000000000 PUSH0 MSTORE PUSH1 0x11 PUSH1 0x4 MSTORE PUSH1 0x24 PUSH0 REVERT JUMPDEST PUSH0 PUSH2 0xA03 DUP3 PUSH2 0x6F9 JUMP JUMPDEST SWAP2 POP PUSH2 0xA0E DUP4 PUSH2 0x6F9 JUMP JUMPDEST SWAP3 POP DUP3 DUP3 MUL PUSH2 0xA1C DUP2 PUSH2 0x6F9 JUMP JUMPDEST SWAP2 POP DUP3 DUP3 DIV DUP5 EQ DUP4 ISZERO OR PUSH2 0xA33 JUMPI PUSH2 0xA32 PUSH2 0x9CC JUMP JUMPDEST JUMPDEST POP SWAP3 SWAP2 POP POP JUMP JUMPDEST PUSH32 0x62616E6B726F6C6C20746F6F206C6F7700000000000000000000000000000000 PUSH0 DUP3 ADD MSTORE POP JUMP JUMPDEST PUSH0 PUSH2 0xA6E PUSH1 0x10 DUP4 PUSH2 0x7DB JUMP JUMPDEST SWAP2 POP PUSH2 0xA79 DUP3 PUSH2 0xA3A JUMP JUMPDEST PUSH1 0x20 DUP3 ADD SWAP1 POP SWAP2 SWAP1 POP JUMP JUMPDEST PUSH0 PUSH1 0x20 DUP3 ADD SWAP1 POP DUP2 DUP2 SUB PUSH0 DUP4 ADD MSTORE PUSH2 0xA9B DUP2 PUSH2 0xA62 JUMP JUMPDEST SWAP1 POP SWAP2 SWAP1 POP JUMP JUMPDEST PUSH0 PUSH2 0xAAC DUP3 PUSH2 0x6F9 JUMP JUMPDEST SWAP2 POP PUSH32 0xFFFFFFFFFFFFFFFFFFFFFFFFFFFFFFFFFFFFFFFFFFFFFFFFFFFFFFFFFFFFFFFF DUP3 SUB PUSH2 0xADE JUMPI PUSH2 0xADD PUSH2 0x9CC JUMP JUMPDEST JUMPDEST PUSH1 0x1 DUP3 ADD SWAP1 POP SWAP2 SWAP1 POP JUMP JUMPDEST PUSH0 DUP2 SWAP1 POP SWAP2 SWAP1 POP JUMP JUMPDEST PUSH2 0xB03 PUSH2 0xAFE DUP3 PUSH2 0x6F9 JUMP JUMPDEST PUSH2 0xAE9 JUMP JUMPDEST DUP3 MSTORE POP POP JUMP JUMPDEST PUSH0 DUP2 PUSH1 0x60 SHL SWAP1 POP SWAP2 SWAP1 POP JUMP JUMPDEST PUSH0 PUSH2 0xB1F DUP3 PUSH2 0xB09 JUMP JUMPDEST SWAP1 POP SWAP2 SWAP1 POP JUMP JUMPDEST PUSH0 PUSH2 0xB30 DUP3 PUSH2 0xB15 JUMP JUMPDEST SWAP1 POP SWAP2 SWAP1 POP JUMP JUMPDEST PUSH2 0xB48 PUSH2 0xB43 DUP3 PUSH2 0x7A2 JUMP JUMPDEST PUSH2 0xB26 JUMP JUMPDEST DUP3 MSTORE POP POP JUMP JUMPDEST PUSH0 PUSH2 0xB59 DUP3 DUP7 PUSH2 0xAF2 JUMP JUMPDEST PUSH1 0x20 DUP3 ADD SWAP2 POP PUSH2 0xB69 DUP3 DUP6 PUSH2 0xB37 JUMP JUMPDEST PUSH1 0x14 DUP3 ADD SWAP2 POP PUSH2 0xB79 DUP3 DUP5 PUSH2 0xAF2 JUMP JUMPDEST PUSH1 0x20 DUP3 ADD SWAP2 POP DUP2 SWAP1 POP SWAP5 SWAP4 POP POP POP POP JUMP JUMPDEST PUSH32 0x4E487B7100000000000000000000000000000000000000000000000000000000 PUSH0 MSTORE PUSH1 0x12 PUSH1 0x4 MSTORE PUSH1 0x24 PUSH0 REVERT JUMPDEST PUSH0 PUSH2 0xBC1 DUP3 PUSH2 0x6F9 JUMP JUMPDEST SWAP2 POP PUSH2 0xBCC DUP4 PUSH2 0x6F9 JUMP JUMPDEST SWAP3 POP DUP3 PUSH2 0xBDC JUMPI PUSH2 0xBDB PUSH2 0xB8A JUMP JUMPDEST JUMPDEST DUP3 DUP3 MOD SWAP1 POP SWAP3 SWAP2 POP POP JUMP JUMPDEST PUSH32 0x5061796F7574206661696C656400000000000000000000000000000000000000 PUSH0 DUP3 ADD MSTORE POP JUMP JUMPDEST PUSH0 PUSH2 0xC1B PUSH1 0xD DUP4 PUSH2 0x7DB JUMP JUMPDEST SWAP2 POP PUSH2 0xC26 DUP3 PUSH2 0xBE7 JUMP JUMPDEST PUSH1 0x20 DUP3 ADD SWAP1 POP SWAP2 SWAP1 POP JUMP JUMPDEST PUSH0 PUSH1 0x20 DUP3 ADD SWAP1 POP DUP2 DUP2 SUB PUSH0 DUP4 ADD MSTORE PUSH2 0xC48 DUP2 PUSH2 0xC0F JUMP JUMPDEST SWAP1 POP SWAP2 SWAP1 POP JUMP JUMPDEST PUSH0 DUP2 ISZERO ISZERO SWAP1 POP SWAP2 SWAP1 POP JUMP JUMPDEST PUSH2 0xC63 DUP2 PUSH2 0xC4F JUMP JUMPDEST DUP3 MSTORE POP POP JUMP JUMPDEST PUSH0 PUSH1 0x80 DUP3 ADD SWAP1 POP PUSH2 0xC7C PUSH0 DUP4 ADD DUP8 PUSH2 0x702 JUMP JUMPDEST PUSH2 0xC89 PUSH1 0x20 DUP4 ADD DUP7 PUSH2 0x702 JUMP JUMPDEST PUSH2 0xC96 PUSH1 0x40 DUP4 ADD DUP6 PUSH2 0xC5A JUMP JUMPDEST PUSH2 0xCA3 PUSH1 0x60 DUP4 ADD DUP5 PUSH2 0x702 JUMP JUMPDEST SWAP6 SWAP5 POP POP POP POP POP JUMP JUMPDEST PUSH32 0x4D7573742073656E64204D4F4E20746F2066756E640000000000000000000000 PUSH0 DUP3 ADD MSTORE POP JUMP JUMPDEST PUSH0 PUSH2 0xCE0 PUSH1 0x15 DUP4 PUSH2 0x7DB JUMP JUMPDEST SWAP2 POP PUSH2 0xCEB DUP3 PUSH2 0xCAC JUMP JUMPDEST PUSH1 0x20 DUP3 ADD SWAP1 POP SWAP2 SWAP1 POP JUMP JUMPDEST PUSH0 PUSH1 0x20 DUP3 ADD SWAP1 POP DUP2 DUP2 SUB PUSH0 DUP4 ADD MSTORE PUSH2 0xD0D DUP2 PUSH2 0xCD4 JUMP JUMPDEST SWAP1 POP SWAP2 SWAP1 POP JUMP INVALID LOG2 PUSH5 0x6970667358 0x22 SLT KECCAK256 PUSH20 0x750648D403D06D1207FE672AAD14E624A2842E4E CHAINID 0xE6 0xEA REVERT 0x4F BLOBHASH 0xD8 ADDRESS ADD MSTORE PUSH2 0x6473 PUSH16 0x6C634300081800330000000000000000 "
		},
		"gasEstimates": {
			"creation": {
				"codeDepositCost": "680400",
				"executionCost": "69190",
				"totalCost": "749590"
			},
			"external": {
				"": "1721",
				"fund()": "1776",
				"getBankroll()": "335",
				"maxBet()": "2470",
				"minBet()": "2469",
				"owner()": "2527",
				"play(uint256)": "infinite",
				"withdraw(uint256)": "infinite"
			}
		},
		"methodIdentifiers": {
			"fund()": "b60d4288",
			"getBankroll()": "0d1fce42",
			"maxBet()": "2e5b2168",
			"minBet()": "9619367d",
			"owner()": "8da5cb5b",
			"play(uint256)": "6898f82b",
			"withdraw(uint256)": "2e1a7d4d"
		}
	},
	"abi": [
		{
			"inputs": [],
			"stateMutability": "nonpayable",
			"type": "constructor"
		},
		{
			"anonymous": false,
			"inputs": [
				{
					"indexed": true,
					"internalType": "address",
					"name": "sender",
					"type": "address"
				},
				{
					"indexed": false,
					"internalType": "uint256",
					"name": "amount",
					"type": "uint256"
				}
			],
			"name": "Funded",
			"type": "event"
		},
		{
			"anonymous": false,
			"inputs": [
				{
					"indexed": true,
					"internalType": "address",
					"name": "player",
					"type": "address"
				},
				{
					"indexed": true,
					"internalType": "uint256",
					"name": "playId",
					"type": "uint256"
				},
				{
					"indexed": false,
					"internalType": "uint256",
					"name": "guess",
					"type": "uint256"
				},
				{
					"indexed": false,
					"internalType": "uint256",
					"name": "result",
					"type": "uint256"
				},
				{
					"indexed": false,
					"internalType": "bool",
					"name": "win",
					"type": "bool"
				},
				{
					"indexed": false,
					"internalType": "uint256",
					"name": "payout",
					"type": "uint256"
				}
			],
			"name": "Play",
			"type": "event"
		},
		{
			"anonymous": false,
			"inputs": [
				{
					"indexed": true,
					"internalType": "address",
					"name": "owner",
					"type": "address"
				},
				{
					"indexed": false,
					"internalType": "uint256",
					"name": "amount",
					"type": "uint256"
				}
			],
			"name": "Withdraw",
			"type": "event"
		},
		{
			"stateMutability": "payable",
			"type": "fallback"
		},
		{
			"inputs": [],
			"name": "fund",
			"outputs": [],
			"stateMutability": "payable",
			"type": "function"
		},
		{
			"inputs": [],
			"name": "getBankroll",
			"outputs": [
				{
					"internalType": "uint256",
					"name": "",
					"type": "uint256"
				}
			],
			"stateMutability": "view",
			"type": "function"
		},
		{
			"inputs": [],
			"name": "maxBet",
			"outputs": [
				{
					"internalType": "uint256",
					"name": "",
					"type": "uint256"
				}
			],
			"stateMutability": "view",
			"type": "function"
		},
		{
			"inputs": [],
			"name": "minBet",
			"outputs": [
				{
					"internalType": "uint256",
					"name": "",
					"type": "uint256"
				}
			],
			"stateMutability": "view",
			"type": "function"
		},
		{
			"inputs": [],
			"name": "owner",
			"outputs": [
				{
					"internalType": "address",
					"name": "",
					"type": "address"
				}
			],
			"stateMutability": "view",
			"type": "function"
		},
		{
			"inputs": [
				{
					"internalType": "uint256",
					"name": "guess",
					"type": "uint256"
				}
			],
			"name": "play",
			"outputs": [],
			"stateMutability": "payable",
			"type": "function"
		},
		{
			"inputs": [
				{
					"internalType": "uint256",
					"name": "amount",
					"type": "uint256"
				}
			],
			"name": "withdraw",
			"outputs": [],
			"stateMutability": "nonpayable",
			"type": "function"
		},
		{
			"stateMutability": "payable",
			"type": "receive"
		}
	]
}